{
  "abi": [
    {
      "inputs": [
        {
          "internalType": "uint256",
          "name": "_id",
          "type": "uint256"
        },
        {
          "internalType": "address",
          "name": "_orderPutter",
          "type": "address"
        },
        {
          "internalType": "address",
          "name": "_tokenSwapContractAddress",
          "type": "address"
        },
        {
          "internalType": "address",
          "name": "_tokenSell",
          "type": "address"
        },
        {
          "internalType": "uint256",
          "name": "_tokenSellAmount",
          "type": "uint256"
        },
        {
          "internalType": "address",
          "name": "_tokenBuy",
          "type": "address"
        },
        {
          "internalType": "uint256",
          "name": "_tokenBuyAmount",
          "type": "uint256"
        }
      ],
      "name": "create",
      "outputs": [],
      "stateMutability": "nonpayable",
      "type": "function"
    },
    {
      "inputs": [
        {
          "internalType": "uint256",
          "name": "",
          "type": "uint256"
        }
      ],
      "name": "orderList",
      "outputs": [
        {
          "internalType": "uint256",
          "name": "id",
          "type": "uint256"
        },
        {
          "internalType": "address",
          "name": "orderPutter",
          "type": "address"
        },
        {
          "internalType": "address",
          "name": "tokenSwapContractAddress",
          "type": "address"
        },
        {
          "internalType": "address",
          "name": "tokenSell",
          "type": "address"
        },
        {
          "internalType": "uint256",
          "name": "tokenSellAmount",
          "type": "uint256"
        },
        {
          "internalType": "address",
          "name": "tokenBuy",
          "type": "address"
        },
        {
          "internalType": "uint256",
          "name": "tokenBuyAmount",
          "type": "uint256"
        },
        {
          "internalType": "bool",
          "name": "completed",
          "type": "bool"
        },
        {
          "internalType": "address",
          "name": "contrbiute",
          "type": "address"
        }
      ],
      "stateMutability": "view",
      "type": "function"
    },
    {
      "inputs": [],
      "name": "orderListLength",
      "outputs": [
        {
          "internalType": "uint256",
          "name": "",
          "type": "uint256"
        }
      ],
      "stateMutability": "view",
      "type": "function"
    },
    {
      "inputs": [
        {
          "internalType": "uint256",
          "name": "_index",
          "type": "uint256"
        }
      ],
      "name": "toggleCompeleted",
      "outputs": [],
      "stateMutability": "nonpayable",
      "type": "function"
    },
    {
      "inputs": [
        {
          "internalType": "uint256",
          "name": "_index",
          "type": "uint256"
        },
        {
          "internalType": "address",
          "name": "_contrbiute",
          "type": "address"
        }
      ],
      "name": "update",
      "outputs": [],
      "stateMutability": "nonpayable",
      "type": "function"
    }
  ],
  "bytecode": "6080604052600080546001600160a01b031916905534801561002057600080fd5b50610538806100306000396000f3fe608060405234801561001057600080fd5b50600436106100575760003560e01c806376f75e7f1461005c578063b11602f5146100c8578063c9d90cd5146100d9578063d345d6b8146102f4578063e68c24ae14610307575b600080fd5b61006f61006a36600461041a565b61031a565b60408051998a526001600160a01b0398891660208b01529688169689019690965293861660608801526080870192909252841660a086015260c0850152151560e084015216610100820152610120015b60405180910390f35b6001546040519081526020016100bf565b6102f26100e736600461044f565b60408051610120810182529788526001600160a01b0396871660208901908152958716908801908152938616606088019081526080880193845291861660a0880190815260c08801918252600060e0890181815281548916610100808c0191825260018054808201825594529a517fb10e2d527612073b26eecdfd717e6a320cf44b4afac2b0732d9fcbe2b7fa0cf660089094029384015597517fb10e2d527612073b26eecdfd717e6a320cf44b4afac2b0732d9fcbe2b7fa0cf7830180546001600160a01b0319908116928c1692909217905596517fb10e2d527612073b26eecdfd717e6a320cf44b4afac2b0732d9fcbe2b7fa0cf8830180548916918b1691909117905593517fb10e2d527612073b26eecdfd717e6a320cf44b4afac2b0732d9fcbe2b7fa0cf9820180548816918a1691909117905593517fb10e2d527612073b26eecdfd717e6a320cf44b4afac2b0732d9fcbe2b7fa0cfa850155517fb10e2d527612073b26eecdfd717e6a320cf44b4afac2b0732d9fcbe2b7fa0cfb840180549095169087161790935591517fb10e2d527612073b26eecdfd717e6a320cf44b4afac2b0732d9fcbe2b7fa0cfc82015590517fb10e2d527612073b26eecdfd717e6a320cf44b4afac2b0732d9fcbe2b7fa0cfd909101805492516001600160a81b0319909316911515610100600160a81b0319169190911791909216909202919091179055565b005b6102f261030236600461041a565b61038d565b6102f26103153660046104c0565b6103c9565b6001818154811061032a57600080fd5b6000918252602090912060089091020180546001820154600283015460038401546004850154600586015460068701546007909701549597506001600160a01b03948516969385169592851694919390821692909160ff82169161010090041689565b6000600182815481106103a2576103a26104ec565b60009182526020909120600760089092020101805460ff19811660ff909116151790555050565b6000600183815481106103de576103de6104ec565b6000918252602090912060076008909202010180546001600160a01b0390931661010002610100600160a81b0319909316929092179091555050565b60006020828403121561042c57600080fd5b5035919050565b80356001600160a01b038116811461044a57600080fd5b919050565b600080600080600080600060e0888a03121561046a57600080fd5b8735965061047a60208901610433565b955061048860408901610433565b945061049660608901610433565b9350608088013592506104ab60a08901610433565b915060c0880135905092959891949750929550565b600080604083850312156104d357600080fd5b823591506104e360208401610433565b90509250929050565b634e487b7160e01b600052603260045260246000fdfea264697066735822122048ad04e74aa131e8be484ef5e43baf92dbfc7cf9615503501e05cbad06602a1964736f6c634300080b0033",
  "bytecodeSha1": "171a658356dcc607106c4ceab2e805d7e8a5ee41",
  "compiler": {
    "evm_version": "istanbul",
    "optimizer": {
      "enabled": true,
      "runs": 200
    },
    "version": "0.8.11+commit.d7f03943"
  },
  "contractName": "OrderList",
  "language": "Solidity",
  "natspec": {
    "kind": "dev",
    "methods": {},
    "version": 1
  },
  "opcodes": "PUSH1 0x80 PUSH1 0x40 MSTORE CALLVALUE DUP1 ISZERO PUSH2 0x10 JUMPI PUSH1 0x0 DUP1 REVERT JUMPDEST POP PUSH1 0x4 CALLDATASIZE LT PUSH2 0x57 JUMPI PUSH1 0x0 CALLDATALOAD PUSH1 0xE0 SHR DUP1 PUSH4 0x76F75E7F EQ PUSH2 0x5C JUMPI DUP1 PUSH4 0xB11602F5 EQ PUSH2 0xC8 JUMPI DUP1 PUSH4 0xC9D90CD5 EQ PUSH2 0xD9 JUMPI DUP1 PUSH4 0xD345D6B8 EQ PUSH2 0x2F4 JUMPI DUP1 PUSH4 0xE68C24AE EQ PUSH2 0x307 JUMPI JUMPDEST PUSH1 0x0 DUP1 REVERT JUMPDEST PUSH2 0x6F PUSH2 0x6A CALLDATASIZE PUSH1 0x4 PUSH2 0x41A JUMP JUMPDEST PUSH2 0x31A JUMP JUMPDEST PUSH1 0x40 DUP1 MLOAD SWAP10 DUP11 MSTORE PUSH1 0x1 PUSH1 0x1 PUSH1 0xA0 SHL SUB SWAP9 DUP10 AND PUSH1 0x20 DUP12 ADD MSTORE SWAP7 DUP9 AND SWAP7 DUP10 ADD SWAP7 SWAP1 SWAP7 MSTORE SWAP4 DUP7 AND PUSH1 0x60 DUP9 ADD MSTORE PUSH1 0x80 DUP8 ADD SWAP3 SWAP1 SWAP3 MSTORE DUP5 AND PUSH1 0xA0 DUP7 ADD MSTORE PUSH1 0xC0 DUP6 ADD MSTORE ISZERO ISZERO PUSH1 0xE0 DUP5 ADD MSTORE AND PUSH2 0x100 DUP3 ADD MSTORE PUSH2 0x120 ADD JUMPDEST PUSH1 0x40 MLOAD DUP1 SWAP2 SUB SWAP1 RETURN JUMPDEST PUSH1 0x1 SLOAD PUSH1 0x40 MLOAD SWAP1 DUP2 MSTORE PUSH1 0x20 ADD PUSH2 0xBF JUMP JUMPDEST PUSH2 0x2F2 PUSH2 0xE7 CALLDATASIZE PUSH1 0x4 PUSH2 0x44F JUMP JUMPDEST PUSH1 0x40 DUP1 MLOAD PUSH2 0x120 DUP2 ADD DUP3 MSTORE SWAP8 DUP9 MSTORE PUSH1 0x1 PUSH1 0x1 PUSH1 0xA0 SHL SUB SWAP7 DUP8 AND PUSH1 0x20 DUP10 ADD SWAP1 DUP2 MSTORE SWAP6 DUP8 AND SWAP1 DUP9 ADD SWAP1 DUP2 MSTORE SWAP4 DUP7 AND PUSH1 0x60 DUP9 ADD SWAP1 DUP2 MSTORE PUSH1 0x80 DUP9 ADD SWAP4 DUP5 MSTORE SWAP2 DUP7 AND PUSH1 0xA0 DUP9 ADD SWAP1 DUP2 MSTORE PUSH1 0xC0 DUP9 ADD SWAP2 DUP3 MSTORE PUSH1 0x0 PUSH1 0xE0 DUP10 ADD DUP2 DUP2 MSTORE DUP2 SLOAD DUP10 AND PUSH2 0x100 DUP1 DUP13 ADD SWAP2 DUP3 MSTORE PUSH1 0x1 DUP1 SLOAD DUP1 DUP3 ADD DUP3 SSTORE SWAP5 MSTORE SWAP11 MLOAD PUSH32 0xB10E2D527612073B26EECDFD717E6A320CF44B4AFAC2B0732D9FCBE2B7FA0CF6 PUSH1 0x8 SWAP1 SWAP5 MUL SWAP4 DUP5 ADD SSTORE SWAP8 MLOAD PUSH32 0xB10E2D527612073B26EECDFD717E6A320CF44B4AFAC2B0732D9FCBE2B7FA0CF7 DUP4 ADD DUP1 SLOAD PUSH1 0x1 PUSH1 0x1 PUSH1 0xA0 SHL SUB NOT SWAP1 DUP2 AND SWAP3 DUP13 AND SWAP3 SWAP1 SWAP3 OR SWAP1 SSTORE SWAP7 MLOAD PUSH32 0xB10E2D527612073B26EECDFD717E6A320CF44B4AFAC2B0732D9FCBE2B7FA0CF8 DUP4 ADD DUP1 SLOAD DUP10 AND SWAP2 DUP12 AND SWAP2 SWAP1 SWAP2 OR SWAP1 SSTORE SWAP4 MLOAD PUSH32 0xB10E2D527612073B26EECDFD717E6A320CF44B4AFAC2B0732D9FCBE2B7FA0CF9 DUP3 ADD DUP1 SLOAD DUP9 AND SWAP2 DUP11 AND SWAP2 SWAP1 SWAP2 OR SWAP1 SSTORE SWAP4 MLOAD PUSH32 0xB10E2D527612073B26EECDFD717E6A320CF44B4AFAC2B0732D9FCBE2B7FA0CFA DUP6 ADD SSTORE MLOAD PUSH32 0xB10E2D527612073B26EECDFD717E6A320CF44B4AFAC2B0732D9FCBE2B7FA0CFB DUP5 ADD DUP1 SLOAD SWAP1 SWAP6 AND SWAP1 DUP8 AND OR SWAP1 SWAP4 SSTORE SWAP2 MLOAD PUSH32 0xB10E2D527612073B26EECDFD717E6A320CF44B4AFAC2B0732D9FCBE2B7FA0CFC DUP3 ADD SSTORE SWAP1 MLOAD PUSH32 0xB10E2D527612073B26EECDFD717E6A320CF44B4AFAC2B0732D9FCBE2B7FA0CFD SWAP1 SWAP2 ADD DUP1 SLOAD SWAP3 MLOAD PUSH1 0x1 PUSH1 0x1 PUSH1 0xA8 SHL SUB NOT SWAP1 SWAP4 AND SWAP2 ISZERO ISZERO PUSH2 0x100 PUSH1 0x1 PUSH1 0xA8 SHL SUB NOT AND SWAP2 SWAP1 SWAP2 OR SWAP2 SWAP1 SWAP3 AND SWAP1 SWAP3 MUL SWAP2 SWAP1 SWAP2 OR SWAP1 SSTORE JUMP JUMPDEST STOP JUMPDEST PUSH2 0x2F2 PUSH2 0x302 CALLDATASIZE PUSH1 0x4 PUSH2 0x41A JUMP JUMPDEST PUSH2 0x38D JUMP JUMPDEST PUSH2 0x2F2 PUSH2 0x315 CALLDATASIZE PUSH1 0x4 PUSH2 0x4C0 JUMP JUMPDEST PUSH2 0x3C9 JUMP JUMPDEST PUSH1 0x1 DUP2 DUP2 SLOAD DUP2 LT PUSH2 0x32A JUMPI PUSH1 0x0 DUP1 REVERT JUMPDEST PUSH1 0x0 SWAP2 DUP3 MSTORE PUSH1 0x20 SWAP1 SWAP2 KECCAK256 PUSH1 0x8 SWAP1 SWAP2 MUL ADD DUP1 SLOAD PUSH1 0x1 DUP3 ADD SLOAD PUSH1 0x2 DUP4 ADD SLOAD PUSH1 0x3 DUP5 ADD SLOAD PUSH1 0x4 DUP6 ADD SLOAD PUSH1 0x5 DUP7 ADD SLOAD PUSH1 0x6 DUP8 ADD SLOAD PUSH1 0x7 SWAP1 SWAP8 ADD SLOAD SWAP6 SWAP8 POP PUSH1 0x1 PUSH1 0x1 PUSH1 0xA0 SHL SUB SWAP5 DUP6 AND SWAP7 SWAP4 DUP6 AND SWAP6 SWAP3 DUP6 AND SWAP5 SWAP2 SWAP4 SWAP1 DUP3 AND SWAP3 SWAP1 SWAP2 PUSH1 0xFF DUP3 AND SWAP2 PUSH2 0x100 SWAP1 DIV AND DUP10 JUMP JUMPDEST PUSH1 0x0 PUSH1 0x1 DUP3 DUP2 SLOAD DUP2 LT PUSH2 0x3A2 JUMPI PUSH2 0x3A2 PUSH2 0x4EC JUMP JUMPDEST PUSH1 0x0 SWAP2 DUP3 MSTORE PUSH1 0x20 SWAP1 SWAP2 KECCAK256 PUSH1 0x7 PUSH1 0x8 SWAP1 SWAP3 MUL ADD ADD DUP1 SLOAD PUSH1 0xFF NOT DUP2 AND PUSH1 0xFF SWAP1 SWAP2 AND ISZERO OR SWAP1 SSTORE POP POP JUMP JUMPDEST PUSH1 0x0 PUSH1 0x1 DUP4 DUP2 SLOAD DUP2 LT PUSH2 0x3DE JUMPI PUSH2 0x3DE PUSH2 0x4EC JUMP JUMPDEST PUSH1 0x0 SWAP2 DUP3 MSTORE PUSH1 0x20 SWAP1 SWAP2 KECCAK256 PUSH1 0x7 PUSH1 0x8 SWAP1 SWAP3 MUL ADD ADD DUP1 SLOAD PUSH1 0x1 PUSH1 0x1 PUSH1 0xA0 SHL SUB SWAP1 SWAP4 AND PUSH2 0x100 MUL PUSH2 0x100 PUSH1 0x1 PUSH1 0xA8 SHL SUB NOT SWAP1 SWAP4 AND SWAP3 SWAP1 SWAP3 OR SWAP1 SWAP2 SSTORE POP POP JUMP JUMPDEST PUSH1 0x0 PUSH1 0x20 DUP3 DUP5 SUB SLT ISZERO PUSH2 0x42C JUMPI PUSH1 0x0 DUP1 REVERT JUMPDEST POP CALLDATALOAD SWAP2 SWAP1 POP JUMP JUMPDEST DUP1 CALLDATALOAD PUSH1 0x1 PUSH1 0x1 PUSH1 0xA0 SHL SUB DUP2 AND DUP2 EQ PUSH2 0x44A JUMPI PUSH1 0x0 DUP1 REVERT JUMPDEST SWAP2 SWAP1 POP JUMP JUMPDEST PUSH1 0x0 DUP1 PUSH1 0x0 DUP1 PUSH1 0x0 DUP1 PUSH1 0x0 PUSH1 0xE0 DUP9 DUP11 SUB SLT ISZERO PUSH2 0x46A JUMPI PUSH1 0x0 DUP1 REVERT JUMPDEST DUP8 CALLDATALOAD SWAP7 POP PUSH2 0x47A PUSH1 0x20 DUP10 ADD PUSH2 0x433 JUMP JUMPDEST SWAP6 POP PUSH2 0x488 PUSH1 0x40 DUP10 ADD PUSH2 0x433 JUMP JUMPDEST SWAP5 POP PUSH2 0x496 PUSH1 0x60 DUP10 ADD PUSH2 0x433 JUMP JUMPDEST SWAP4 POP PUSH1 0x80 DUP9 ADD CALLDATALOAD SWAP3 POP PUSH2 0x4AB PUSH1 0xA0 DUP10 ADD PUSH2 0x433 JUMP JUMPDEST SWAP2 POP PUSH1 0xC0 DUP9 ADD CALLDATALOAD SWAP1 POP SWAP3 SWAP6 SWAP9 SWAP2 SWAP5 SWAP8 POP SWAP3 SWAP6 POP JUMP JUMPDEST PUSH1 0x0 DUP1 PUSH1 0x40 DUP4 DUP6 SUB SLT ISZERO PUSH2 0x4D3 JUMPI PUSH1 0x0 DUP1 REVERT JUMPDEST DUP3 CALLDATALOAD SWAP2 POP PUSH2 0x4E3 PUSH1 0x20 DUP5 ADD PUSH2 0x433 JUMP JUMPDEST SWAP1 POP SWAP3 POP SWAP3 SWAP1 POP JUMP JUMPDEST PUSH4 0x4E487B71 PUSH1 0xE0 SHL PUSH1 0x0 MSTORE PUSH1 0x32 PUSH1 0x4 MSTORE PUSH1 0x24 PUSH1 0x0 REVERT INVALID LOG2 PUSH5 0x6970667358 0x22 SLT KECCAK256 BASEFEE 0xAD DIV 0xE7 0x4A LOG1 BALANCE 0xE8 0xBE BASEFEE 0x4E CREATE2 0xE4 EXTCODESIZE 0xAF SWAP3 0xDB 0xFC PUSH29 0xF9615503501E05CBAD06602A1964736F6C634300080B00330000000000 ",
  "sha1": "36b2c08c014c848942a2adf068f4a9e8d8f4f632",
  "source": "// SPDX-License-Identifier: MIT\n\npragma solidity ^0.8.0;\n\n\n\ncontract OrderList {\n    address default_address = 0x0000000000000000000000000000000000000000;\n    struct Order{\n        uint id;\n        address orderPutter;\n        address tokenSwapContractAddress;\n        address tokenSell;\n        uint tokenSellAmount;\n        address tokenBuy;\n        uint tokenBuyAmount;\n        bool completed;\n        address contrbiute;\n    }\n\n    Order[] public orderList;\n\n    function create(uint _id, address _orderPutter, address _tokenSwapContractAddress, address _tokenSell, uint _tokenSellAmount, address _tokenBuy, uint _tokenBuyAmount) public {\n        orderList.push(Order(_id, _orderPutter, _tokenSwapContractAddress, _tokenSell, _tokenSellAmount, _tokenBuy, _tokenBuyAmount, false, default_address));\n    }\n\n    function toggleCompeleted(uint _index) public {\n        Order storage order = orderList[_index];\n        order.completed = !order.completed;\n    }\n\n    function update(uint _index, address _contrbiute) public {\n        Order storage order = orderList[_index];\n        order.contrbiute = _contrbiute;\n    }\n\n    function orderListLength() public view returns(uint){\n        return orderList.length;\n    }\n}",
  "sourcePath": "contracts/OrderList.sol",
  "type": "contract"
}